:020000040800F2
:1000000000000220EDBF0008056200081162000830
:10001000196200082162000829620008000000003F
:100020000000000000000000000000003162000835
:100030003D620008000000004962000855620008A7
:100040004DC000084DC000084DC000084DC000085C
:100050004DC000084DC000084DC000084DC000084C
:100060004DC000084DC000084DC000084DC000083C
:100070004DC000084DC000087D0300084103000882
:100080004DC0000829030008F10100084DC0000818
:100090004DC000084DC000084DC000084DC000080C
:1000A0004DC000084DC000084DC00008750D000887
:1000B0004DC000084DC000080D0400084DC00008E8
:1000C0004DC00008010300080D0300084DC00008E2
:1000D0004DC00008350E0008AD0E0008190F0008CD
:1000E0004DC000084DC000084DC000084DC00008BC
:1000F0004DC00008DD0B0008ED0700084DC00008EA
:100100004DC000084DC000084DC000084DC000089B
:100110004DC000084DC000084DC000084DC000088B
:100120004DC000084DC000084DC000084DC000087B
:100130004DC000084DC000084DC000084DC000086B
:100140004DC000084DC000084DC000084DC000085B
:100150004DC000084DC000084DC000084DC000084B
:100160004DC000084DC000084DC000084DC000083B
:100170004DC000084DC000084DC000084DC000082B
:080180004DC000084DC000084D
:1001880010B540F22424C2F20004237863B940F287
:100198000000C0F2000028B14CF25040C0F6000048
:1001A800AFF300800121217010BD00BF08B540F2F7
:1001B8000003C0F200034BB14CF2504040F228213A
:1001C800C0F60000C2F20001AFF3008040F2242024
:1001D800C2F20000016829B140F20003C0F2000336
:1001E80003B1984708BD00BF80B582B000AF4FF09B
:1001F8000003FB804FF40050C4F2010040F20521D7
:1002080007F05AF80346002B1ED04FF40050C4F2F2
:10021800010006F0E7FD0346FB8040F26043C2F2AE
:100228000003FA88A3F884204FF40050C4F20100B8
:100238004FF0020107F030F84FF40050C4F201000B
:1002480040F2052107F06EF84FF40450C4F20100A3
:1002580040F2052107F030F80346002B1ED04FF47A
:100268000450C4F2010006F0BDFD0346FB8040F2D5
:100278006043C2F20003FA88A3F888204FF40450C0
:10028800C4F201004FF0020107F006F84FF40450E1
:10029800C4F2010040F2052107F044F84FF4085079
:1002A800C4F2010040F2052107F006F80346002BCE
:1002B8001ED04FF40850C4F2010006F093FD034627
:1002C800FB8040F26043C2F20003FA88A3F88A2058
:1002D8004FF40850C4F201004FF0020106F0DCFFB1
:1002E8004FF40850C4F2010040F2052107F01AF853
:1002F80007F10807BD4680BD80B400AFBD4680BC8D
:10030800704700BF80B500AF4FF4B040C4F20000A2
:100318004FF4BE41C1F2000108F06CFB80BD00BF84
:1003280080B500AF46F2A000C4F202004FF0100101
:1003380007F0EAFB80BD00BF80B500AF40F2306334
:10034800C2F200031A786FF345121A7046F2700071
:10035800C4F202004FF0100107F0D6FB46F270001D
:10036800C4F202004FF010014FF0000207F030FB1A
:1003780080BD00BF80B500AF46F25800C4F202004D
:100388004FF092014FF0000207F022FB4FF4B0400B
:10039800C4F200004FF0010108F002F846F25800DC
:1003A800C4F202004FF0000107F094F900BF46F2D2
:1003B8005800C4F2020007F065FA0346002BF6D194
:1003C8004FF4B040C4F200004FF0000108F0FCF90F
:1003D80046F25800C4F202004FF0100107F094FBF7
:1003E80040F23063C2F200031A7842F001021A7038
:1003F80040F23063C2F200031A786FF3C3021A7036
:1004080080BD00BF80B582B000AF4FF000033B60F5
:100418004FF000037B604FF40063C4F200031B8AB3
:100428009BB203F00203002B6ED04FF40060C4F2BD
:1004380000000AF099FB386040F29823C2F20003EA
:100448001B683A689A4208D940F29823C2F200031E
:100458001B683A68D31A7B600AE040F29823C2F21C
:1004680000031B683A68D21A4FF6FF73D3187B60F3
:100478004FF44060C4F202004FF4805107F014FDBD
:100488000346002B06D040F29C23C2F200037A6890
:100498001A6032E040F2A023C2F200037A681A60C0
:1004A80040F2A023C2F200031B689AB240F26043F4
:1004B800C2F20003A3F85A2040F23063C2F20003EC
:1004C8001B7823F07F03DBB2002B16D040F2604389
:1004D800C2F20003B3F85A304FF08040194609F0D1
:1004E8001FFF40F26043C2F20003B3F85A2040F203
:1004F8006043C2F20003A3F86C2040F29823C2F2D2
:1005080000033A681A6069E14FF40063C4F200031B
:100518001B8A9BB203F00403002B6ED04FF40060DB
:10052800C4F200000AF02CFB386040F2A423C2F2A7
:1005380000031B683A689A4208D940F2A423C2F221
:1005480000031B683A68D31A7B600AE040F2A423D0
:10055800C2F200031B683A68D21A4FF6FF73D31829
:100568007B604FF44060C4F202004FF4005107F082
:100578009BFC0346002B06D040F2A823C2F20003DE
:100588007A681A6032E040F2AC23C2F200037A685B
:100598001A6040F2AC23C2F200031B689AB240F220
:1005A8006043C2F20003A3F85C2040F23063C2F259
:1005B80000031B7823F07F03DBB2002B16D040F238
:1005C8006043C2F20003B3F85C304FF08040194634
:1005D80009F0B4FE40F26043C2F20003B3F85C20B5
:1005E80040F26043C2F20003A3F86E2040F2A42355
:1005F800C2F200033A681A60F0E04FF40063C4F2F4
:1006080000031B8A9BB203F00803002B6ED04FF443
:100618000060C4F200000AF0BFFA386040F2B0236C
:10062800C2F200031B683A689A4208D940F2B02324
:10063800C2F200031B683A68D31A7B600AE040F2F2
:10064800B023C2F200031B683A68D21A4FF6FF7350
:10065800D3187B604FF44060C4F202004FF480412D
:1006680007F022FC0346002B06D040F2B423C2F266
:1006780000037A681A6032E040F2B823C2F200033D
:100688007A681A6040F2B823C2F200031B689AB273
:1006980040F26043C2F20003A3F8602040F23063E6
:1006A800C2F200031B7823F07F03DBB2002B16D0C5
:1006B80040F26043C2F20003B3F860304FF080406C
:1006C800194609F057FE40F26043C2F20003B3F83E
:1006D800602040F26043C2F20003A3F8722040F2A7
:1006E800B023C2F200033A681A6077E04FF400635F
:1006F800C4F200031B8A9BB203F01003002B6DD0D9
:100708004FF40060C4F200000AF052FA386040F278
:10071800BC23C2F200031B683A689A4208D940F227
:10072800BC23C2F200031B683A68D31A7B600AE054
:1007380040F2BC23C2F200031B683A68D21A4FF693
:10074800FF73D3187B604FF44060C4F202004FF48B
:10075800004107F0A9FB0346002B06D040F2C02356
:10076800C2F200037A681A6032E040F2C423C2F28F
:1007780000037A681A6040F2C423C2F200031B68BF
:100788009AB240F26043C2F20003A3F85E2040F23E
:100798003063C2F200031B7823F07F03DBB2002B27
:1007A80016D040F26043C2F20003B3F85E304FF057
:1007B8008040194609F0D0FD40F26043C2F20003C0
:1007C800B3F85E2040F26043C2F20003A3F8702041
:1007D80040F2BC23C2F200033A681A6007F1080726
:1007E800BD4680BD80B582B000AF4FF000033B60CE
:1007F8004FF000037B604FF48063C4F201031B8A4F
:100808009BB203F00203002B70D04FF48060C4F257
:1008180001000AF0A9F9386040F2C823C2F20003C7
:100828001B683A689A4208D940F2C823C2F200030A
:100838001B683A68D31A7B600AE040F2C823C2F208
:1008480000031B683A68D21A4FF6FF73D3187B600F
:100858004FF40060C4F202004FF0400107F024FB9F
:100868000346002B06D040F2CC23C2F200037A687C
:100878001A6034E040F2D023C2F200037A681A60AA
:1008880040F2D023C2F200031B689AB240F26043E0
:10089800C2F20003A3F8622040F23063C2F2000300
:1008A8001B7823F07F03DBB2002B18D040F26043A3
:1008B800C2F20003B3F862304FF48060C4F2000063
:1008C800194609F02DFD40F26043C2F20003B3F867
:1008D800622040F26043C2F20003A3F8742040F2A1
:1008E800C823C2F200033A681A606FE14FF48063CC
:1008F800C4F201031B8A9BB203F00403002B70D0DF
:100908004FF48060C4F201000AF03AF9386040F20E
:10091800D423C2F200031B683A689A4208D940F20D
:10092800D423C2F200031B683A68D31A7B600AE03A
:1009380040F2D423C2F200031B683A68D21A4FF679
:10094800FF73D3187B604FF40060C4F202004FF0CD
:10095800800107F0A9FA0346002B06D040F2D823FD
:10096800C2F200037A681A6034E040F2DC23C2F273
:1009780000037A681A6040F2DC23C2F200031B68A5
:100988009AB240F26043C2F20003A3F8642040F236
:100998003063C2F200031B7823F07F03DBB2002B25
:1009A80018D040F26043C2F20003B3F864304FF449
:1009B8008060C4F20000194609F0C0FC40F26043B0
:1009C800C2F20003B3F8642040F26043C2F20003AD
:1009D800A3F8762040F2D423C2F200033A681A60E2
:1009E800F4E04FF48063C4F201031B8A9BB203F066
:1009F8000803002B70D04FF48060C4F201000AF0A5
:100A0800CBF8386040F2E023C2F200031B683A6872
:100A18009A4208D940F2E023C2F200031B683A6800
:100A2800D31A7B600AE040F2E023C2F200031B689D
:100A38003A68D21A4FF6FF73D3187B604FF4006000
:100A4800C4F202004FF4807107F02EFA0346002B1F
:100A580006D040F2E423C2F200037A681A6034E058
:100A680040F2E823C2F200037A681A6040F2E823F1
:100A7800C2F200031B689AB240F26043C2F200035C
:100A8800A3F8662040F23063C2F200031B7823F01B
:100A98007F03DBB2002B18D040F26043C2F20003A0
:100AA800B3F866304FF48060C4F20000194609F0CC
:100AB80053FC40F26043C2F20003B3F8662040F2F0
:100AC8006043C2F20003A3F8782040F2E023C2F2A8
:100AD80000033A681A6079E04FF48063C4F20103B6
:100AE8001B8A9BB203F01003002B6FD04FF4806079
:100AF800C4F201000AF05CF8386040F2EC23C2F25C
:100B080000031B683A689A4208D940F2EC23C2F203
:100B180000031B683A68D31A7B600AE040F2EC23B2
:100B2800C2F200031B683A68D21A4FF6FF73D31853
:100B38007B604FF40060C4F202004FF4007107F0CC
:100B4800B3F90346002B06D040F2F023C2F20003AB
:100B58007A681A6034E040F2F423C2F200037A683B
:100B68001A6040F2F423C2F200031B689AB240F202
:100B78006043C2F20003A3F8682040F23063C2F277
:100B880000031B7823F07F03DBB2002B18D040F260
:100B98006043C2F20003B3F868304FF48060C4F2D7
:100BA8000000194609F0E6FB40F26043C2F2000378
:100BB800B3F8682040F26043C2F20003A3F87A2039
:100BC80040F2EC23C2F200033A681A6007F1080702
:100BD800BD4680BD80B500AF4FF40053C4F200039A
:100BE8001B8A9BB203F00103DBB2002B00F0BC8030
:100BF8004FF40050C4F200004FF001010AF060F910
:100C080040F23063C2F200035B7803F00803DBB202
:100C1800002B2BD040F2F823C2F200031B6803F12B
:100C2800010240F2F823C2F200031A6040F2F823EE
:100C3800C2F200031B68642B18D940F2F823C2F2F1
:100C480000034FF000021A604FF40050C4F2010094
:100C580006F022F84FF40450C4F2010006F01CF824
:100C68004FF40850C4F2010006F016F840F2306361
:100C7800C2F200035B7803F00103DBB2002B67D0FC
:100C880040F26423C2F200031B6803F1010240F240
:100C98006423C2F200031A6040F26423C2F2000324
:100CA8001B68B3F5FA7F12DD40F26423C2F2000339
:100CB8004FF000021A6040F23063C2F200031B7862
:100CC80003F00203DBB2002B01D103F065FF40F211
:100CD8007C23C2F200031B6803F1010240F27C236B
:100CE800C2F200031A6040F27C23C2F200031B68C0
:100CF800642B2DDD40F27C23C2F200034FF0640226
:100D08001A6040F23063C2F200031B7803F0080354
:100D1800DBB2002B1CD140F23063C2F200031B7817
:100D280003F01003DBB2002B12D040F27C23C2F296
:100D380000034FF000021A604FF0D0004FF03B0163
:100D480040F29C52C2F200024FF0160304F0E2FE99
:100D58004FF44060C4F202004FF4806107F03EF99E
:100D680003F03EFA03F08EFE80BD00BF80B500AFF1
:100D78004FF00003C4F201031B8A9BB203F0020385
:100D8800002B0CD04FF00000C4F2010009F0ECFE7B
:100D980003461A4640F28823C2F200031A604FF055
:100DA8000003C4F201031B8A9BB203F00403002B67
:100DB8000CD04FF00000C4F2010009F0E1FE034638
:100DC8001A4640F28C23C2F200031A604FF0000367
:100DD800C4F201031B8A9BB203F00803002B0CD05A
:100DE8004FF00000C4F2010009F0D6FE03461A468F
:100DF80040F29023C2F200031A604FF00003C4F2DD
:100E080001031B8A9BB203F01003002B0CD04FF098
:100E18000000C4F2010009F0CBFE03461A4640F276
:100E28009423C2F200031A6080BD00BF80B500AFF2
:100E38004FF48053C4F201031B889BB203F02003D4
:100E4800002B0AD04FF48050C4F201000AF004FECF
:100E58000346DBB2184603F089FF4FF48053C4F20F
:100E680001031B889BB203F04003002B19D04FF4F9
:100E78008050C4F2010040F226614FF000020AF0EF
:100E880081FF4FF48050C4F201004FF06D010AF069
:100E9800CFFD4FF48050C4F201004FF040010AF03A
:100EA800E3FF80BD80B582B000AF4FF000037B60E8
:100EB8004FF48843C4F200031B889BB203F020035D
:100EC800002B0AD04FF48840C4F200000AF0C4FD99
:100ED80003467B60786803F085FA4FF48843C4F2D0
:100EE80000031B889BB203F04003002B0BD04FF488
:100EF8008843C4F200031B884FF48843C4F20003FC
:100F08004FF000021A8007F10807BD4680BD00BFF8
:100F180080B582B000AF4FF000037B604FF4904380
:100F2800C4F200031B889BB203F02003002B0CD0F3
:100F38004FF49040C4F200000AF08EFD03467B6037
:100F48007B68DBB2184600F083FC4FF49043C4F290
:100F580000031B889BB203F04003002B0BD04FF417
:100F68009043C4F200031B884FF49043C4F200037B
:100F78004FF000021A8007F10807BD4680BD00BF88
:100F880080B584B000AF0346FB714FF4E06005F014
:100F980029FB4FF012033B734FF00F037B734FF0A5
:100FA8000F03BB73FB79FB7307F10C03184605F0BD
:100FB8002DFB4FF025033B734FF00F037B734FF06E
:100FC8000F03BB73FB79FB7307F10C03184605F09D
:100FD8001DFB4FF026033B734FF00F037B734FF05D
:100FE8000F03BB73FB79FB7307F10C03184605F07D
:100FF8000DFB4FF027033B734FF00F037B734FF04C
:101008000F03BB73FB79FB7307F10C03184605F05C
:10101800FDFA4FF00E033B734FF00F037B734FF055
:101028000F03BB73FB79FB7307F10C03184605F03C
:10103800EDFA4FF00F033B734FF00F037B734FF044
:101048000F03BB73FB79FB7307F10C03184605F01C
:10105800DDFA4FF011033B734FF00F037B734FF032
:101068000F03BB73FB79FB7307F10C03184605F0FC
:10107800CDFA4FF01E033B734FF00F037B734FF015
:101088000F03BB73FB79FB7307F10C03184605F0DC
:10109800BDFA4FF02E033B734FF00F037B734FF0F5
:1010A8000F03BB73FB79FB7307F10C03184605F0BC
:1010B800ADFA4FF02D033B734FF00F037B734FF0E6
:1010C8000F03BB73FB79FB7307F10C03184605F09C
:1010D8009DFA4FF021033B734FF00F037B734FF0E2
:1010E8000F03BB73FB79FB7307F10C03184605F07C
:1010F8008DFAFB79002B08D040F23063C2F200036E
:101108005A7842F002025A7007E040F23063C2F2A5
:1011180000035A786FF341025A7007F11007BD4671
:1011280080BD00BF80B500AF4CF2503000F092F89F
:101138004FF44060C4F202004FF400714FF0000217
:1011480006F026FF4CF2503000F084F84FF440606F
:10115800C4F202004FF400714FF0010206F018FFCC
:1011680044F24020C0F20F0000F074F840F23063FF
:10117800C2F200031A7842F002021A7003F046FD28
:101188004FF44060C4F202004FF400714FF00002C7
:1011980006F0FEFE4CF2503000F05CF84FF4406070
:1011A800C4F202004FF400714FF0010206F0F0FEA5
:1011B80003F05CFD4FF44060C4F202004FF400718C
:1011C8004FF0000206F0E4FE48F28040C0F21E0034
:1011D80000F040F84FF44060C4F202004FF4007190
:1011E8004FF0010206F0D4FE40F23063C2F2000371
:1011F8001A786FF341021A7000F0DCF94FF440607E
:10120800C4F202004FF400714FF0000206F0C0FE75
:101218004CF2503000F01EF84FF44060C4F2020067
:101228004FF400714FF0010206F0B2FE4FF00000DB
:10123800FFF7A6FE03F038FF40F23063C2F2000366
:101248005A7842F001025A704FF00100FFF798FEF9
:1012580080BD00BF80B485B000AF78600AE04FF071
:101268000603FB7303E0FB7B03F1FF33FB73FB7B9C
:10127800002BF8D17B68002B0CBF00220122D2B2D0
:1012880003F1FF337B60002AE9D107F11407BD465B
:1012980080BC704780B592B000AF7860396046F284
:1012A800A000C4F2020006F055F84FF00063FB609E
:1012B80044F20443C4F200033B617B687B614FF056
:1012C8004003BB613B68FB614FF000033B624FF496
:1012D80080637B624FF00003BB624FF00003FB6248
:1012E8004FF000033B634FF000037B634FF00403B0
:1012F800BB634FF00303FB634FF000033B644FF005
:1013080000037B6446F2A000C4F2020007F10C035C
:10131800194606F041F946F2A000C4F202004FF067
:10132800010106F0D7F94FF48840C4F200004FF0ED
:1013380080014FF001020AF001FD07F14807BD46A0
:1013480080BD00BF80B592B000AF7860396046F2CA
:101358007000C4F2020005F0FDFF4FF06063FB600F
:1013680044F60403C4F200033B617B687B614FF0E1
:101378004003BB613B68FB614FF000033B624FF4E5
:1013880080637B624FF00003BB624FF00003FB6297
:101398004FF000033B634FF000037B634FF00403FF
:1013A800BB634FF00303FB634FF000033B644FF054
:1013B80000037B6446F27000C4F2020007F10C03DC
:1013C800194606F0E9F846F27000C4F202004FF040
:1013D800010106F07FF94FF49040C4F200004FF08D
:1013E80080014FF001020AF0A9FC46F27000C4F235
:1013F80002004FF010014FF0010206F0E9FA07F180
:101408004807BD4680BD00BF80B584B000AF4FF02F
:101418000003FB604FF00003BB604FF00003FB715B
:1014280040F23063C2F200031A7842F020021A70C8
:1014380040F21433C2F200034FF024021A7040F253
:101448001433C2F200034FF050025A7040F21433C2
:10145800C2F200034FF04D029A7040F21433C2F208
:1014680000034FF05402DA7040F21433C2F2000362
:101478004FF04B021A7140F21433C2F200034FF0DE
:1014880033025A7140F21433C2F200034FF03102B2
:101498009A7140F21433C2F200034FF03402DA7149
:1014A8004FF00803FB604FF00003BB601AE040F206
:1014B8001433C2F20003FA689B184FF02C021A701A
:1014C800FB6803F1010240F21433C2F200034FF04B
:1014D80030019954FB6803F10203FB60BB6803F118
:1014E8000103BB60BB68122BE1DD40F21433C2F28A
:1014F8000003FA689B184FF02A021A70FB6803F180
:101508000103FB6040F21430C2F200004FF0010109
:101518004FF02E0200F05CF90346FB71FB79184688
:101528004FF0010100F02AF903461A4640F214333D
:10153800C2F20003F9685B181A70FB6803F1010333
:10154800FB60FB7918464FF0000100F017F90346DD
:101558001A4640F21433C2F20003F9685B181A7095
:10156800FB6803F10103FB6040F21433C2F200038D
:10157800FA689B184FF00D021A70FB6803F101031B
:10158800FB6040F21433C2F20003FA689B184FF074
:101598000A021A70FB6803F10103FB6040F2143081
:1015A800C2F20000F968FFF7CDFE07F11007BD464B
:1015B80080BD00BF80B584B000AF4FF00003FB6072
:1015C8004FF00003BB604FF00003FB7140F2306343
:1015D800C2F200031A7842F020021A7040F2143363
:1015E800C2F200034FF024021A7040F21433C2F220
:1015F80000034FF050025A7040F21433C2F2000355
:101608004FF04D029A7040F21433C2F200034FF0CB
:101618005402DA7040F21433C2F200034FF04B0266
:101628001A7140F21433C2F200034FF033025A71B8
:1016380040F21433C2F200034FF031029A7140F2C3
:101648001433C2F200034FF03402DA714FF008038A
:10165800FB604FF00003BB601AE040F21433C2F2A3
:101668000003FA689B184FF02C021A70FB6803F10C
:10167800010240F21433C2F200034FF030019954D2
:10168800FB6803F10203FB60BB6803F10103BB6065
:10169800BB68122BE1DD40F21433C2F200034FF0B5
:1016A8003102DA7340F21433C2F200034FF0310210
:1016B800DA7240F21433C2F20003FA689B184FF052
:1016C8002A021A70FB6803F10103FB6040F2143030
:1016D800C2F200004FF001014FF02E0200F078F83E
:1016E8000346FB71FB7918464FF0010100F046F8FC
:1016F80003461A4640F21433C2F20003F9685B1835
:101708001A70FB6803F10103FB60FB7918464FF080
:10171800000100F033F803461A4640F21433C2F2CF
:101728000003F9685B181A70FB6803F10103FB609A
:1017380040F21433C2F20003FA689B184FF00D020E
:101748001A70FB6803F10103FB6040F21433C2F224
:101758000003FA689B184FF00A021A70FB6803F13D
:101768000103FB6040F21430C2F20000F968FFF791
:10177800E9FD07F11007BD4680BD00BF80B485B004
:1017880000AF02460B46FA71BB714FF00003FB73C2
:10179800BB79002B04D0FB794FEA1313FB7303E0EA
:1017A800FB7903F00F03FB73FB7B092B04D8FB7B4E
:1017B80003F13003FB7303E0FB7B03F13703FB7397
:1017C800FB7B184607F11407BD4680BC704700BF75
:1017D80080B487B000AFF860B9607A604FF000035A
:1017E8007B6140F21433C2F20003BA689B181B787D
:1017F800FB74BB6803F101037B610DE040F2143315
:10180800C2F200037A699B181A78FB7C5340FB7478
:101818007B6903F101037B617A697B689A42EDDB9E
:10182800FB7C184607F11C07BD4680BC704700BF0B
:1018380080B483B000AF0346FB71FB79A3F130039A
:10184800DBB2184607F10C07BD4680BC704700BFE5
:1018580090B585B000AF0346FB714FF00003FB81E4
:1018680040F23063C2F200031B7803F02003DBB2BE
:10187800002B41F0AC8140F24023C2F200031B78F8
:10188800032B01F2978101A252F823F0A518000852
:1018980017190008AD220008772B0008FB79242BC4
:1018A80041F0908140F24023C2F200034FF0010260
:1018B8001A7040F24123C2F200034FF013021A706B
:1018C80040F20433C2F200034FF000021A7040F2F3
:1018D8000433C2F200034FF000025A7040F2492369
:1018E800C2F200034FF000021A7040F2FC23C2F269
:1018F80000031A786FF345121A7040F2FC23C2F203
:1019080000031A7842F040021A7001F05BB9FB79C3
:101918002C2B40F0D68340F24123C2F200031B78FF
:10192800132B00F2B08301A252F823F0091E00081D
:101938003B1D0008971E0008DF1E0008D11A00088A
:10194800411B0008E91B00085B1C0008B71F0008C2
:10195800FF1F00080F1D0008472000088F200008FF
:10196800671A0008271F00086F1F00088F2000084B
:101978008F2000088F2000088519000840F24123B5
:10198800C2F200034FF000021A7040F24923C2F27B
:1019980000034FF000021A7040F20433C2F2000351
:1019A8009B78472B1ED140F20433C2F20003DB7848
:1019B800472B17D140F20433C2F200031B79412BA5
:1019C80010D140F2FC23C2F200031A7842F0080258
:1019D8001A7040F2FC23C2F200031A786FF3041263
:1019E8001A703BE040F20433C2F200039B78522B9A
:1019F8001ED140F20433C2F20003DB784D2B17D11D
:101A080040F20433C2F200031B79432B10D140F299
:101A1800FC23C2F200031A786FF3C3021A7040F273
:101A2800FC23C2F200031A7842F010021A7015E083
:101A380040F24123C2F200034FF015021A7040F23F
:101A48004023C2F200034FF000021A7040F249230B
:101A5800C2F200034FF000021A7014E313E340F2DD
:101A68000433C2F200031B78562B0FD140F25833CF
:101A7800C2F20003DB8C4FEA43434FEA53439AB266
:101A880040F25833C2F20003DA840EE040F25833D1
:101A9800C2F20003DB8C6FEA43436FEA53439AB206
:101AA80040F25833C2F20003DA8440F24123C2F212
:101AB80000034FF002021A7040F24923C2F20003F9
:101AC8004FF000021A70DEE240F20433C2F2000363
:101AD8001B784E2B0DD140F25833C2F200039B8C79
:101AE80023F001039AB240F25833C2F200039A84F9
:101AF8000CE040F25833C2F200039B8C43F0010320
:101B08009AB240F25833C2F200039A8440F2412359
:101B1800C2F200034FF003021A7040F24023C2F2EF
:101B280000034FF001021A7040F24923C2F2000389
:101B38004FF000021A70A6E240F20433C2F200032A
:101B48001B78452B0DD140F25833C2F200039B8C11
:101B580023F002039AB240F25833C2F200039A8487
:101B68000CE040F25833C2F200039B8C43F00203AE
:101B78009AB240F25833C2F200039A8440F2FC232E
:101B8800C2F200031B7803F00803DBB2002B07D076
:101B980040F24123C2F200034FF006021A7010E02F
:101BA80040F2FC23C2F200031B7803F01003DBB2FF
:101BB800002B06D040F24123C2F200034FF00E0280
:101BC8001A7040F24023C2F200034FF001021A706B
:101BD80040F24923C2F200034FF000021A7052E2A9
:101BE80040F25833C2F20003DB8C23F00F039AB2A1
:101BF80040F25833C2F20003DA8440F25833C2F29A
:101C08000003DB8C9AB240F20433C2F200031B7863
:101C180003F00F039BB213439BB29AB240F25833BE
:101C2800C2F20003DA8440F24023C2F200034FF00C
:101C380001021A7040F24123C2F200034FF007027A
:101C48001A7040F24923C2F200034FF000021A70E2
:101C580019E24FF00103FB8140F25833C2F200034E
:101C68004FF000029A8240F24923C2F200031B7827
:101C780003F1FF33DAB240F24923C2F200031A70CB
:101C880040F25833C2F200039A8A40F24923C2F262
:101C980000031B78194640F20433C2F200035B5C70
:101CA800A3F130039BB2F98901FB03F39BB2D3186C
:101CB8009AB240F25833C2F200039A82FB891A465C
:101CC8004FEA8202D3184FEA4303FB8140F24923CB
:101CD800C2F200031B78002BC5D140F24023C2F2A8
:101CE80000034FF001021A7040F24123C2F20003D0
:101CF8004FF008021A7040F24923C2F200034FF075
:101D080000021A70BFE140F24023C2F200034FF014
:101D180001021A7040F24123C2F200034FF00B0295
:101D28001A7040F24923C2F200034FF000021A7001
:101D3800A9E140F20433C2F200031B781A464FEAC5
:101D48008202D3184FEA43039AB240F20433C2F234
:101D580000035B78D3189BB2A3F504739AB240F2E0
:101D68005833C2F20003DA8340F20433C2F20003AC
:101D78009B781A464FEA8202D3184FEA43039AB275
:101D880040F20433C2F20003DB78D3189BB2A3F508
:101D980004739AB240F25833C2F200031A8440F234
:101DA8000433C2F200031B791A464FEA8202D318A1
:101DB8004FEA43039AB240F20433C2F200035B795C
:101DC800D3189BB2A3F504739AB240F25833C2F207
:101DD80000035A8440F24023C2F200034FF003028A
:101DE8001A7040F24123C2F200034FF015021A7034
:101DF80040F24923C2F200034FF000021A7042E198
:101E080040F25833C2F200034FF00002DA8240F287
:101E18005833C2F200034FF000021A8340F25833DD
:101E2800C2F200034FF000025A8340F2FC23C2F2D0
:101E380000031B7803F00803DBB2002B07D040F245
:101E48004123C2F200034FF002021A7010E040F280
:101E5800FC23C2F200031B7803F01003DBB2002B53
:101E680006D040F24123C2F200034FF00D021A706F
:101E780040F24023C2F200034FF001021A7040F210
:101E88004923C2F200034FF000021A70FBE040F24F
:101E98005833C2F200034FF000021A8040F2583360
:101EA800C2F200034FF000025A8040F24123C2F20E
:101EB80000034FF004021A7040F24023C2F20003FC
:101EC8004FF001021A7040F24923C2F200034FF0AA
:101ED80000021A70D7E040F25833C2F200034FF004
:101EE80000029A8040F25833C2F200034FF0000219
:101EF800DA8040F24123C2F200034FF005021A7063
:101F080040F24023C2F200034FF001021A7040F27F
:101F18004923C2F200034FF000021A70B3E040F206
:101F28005833C2F200034FF000029A8140F258334E
:101F3800C2F200034FF00002DA8140F24123C2F2FC
:101F480000034FF00F021A7040F24023C2F2000360
:101F58004FF001021A7040F24923C2F200034FF019
:101F680000021A708FE040F25833C2F200034FF0BB
:101F780000021A8240F25833C2F200034FF0000206
:101F88005A8240F24123C2F200034FF001021A7054
:101F980040F24023C2F200034FF001021A7040F2EF
:101FA8004923C2F200034FF000021A706BE040F2BE
:101FB8005833C2F200034FF000021A8540F258333A
:101FC800C2F200034FF000025A8540F24123C2F2E8
:101FD80000034FF009021A7040F24023C2F20003D6
:101FE8004FF001021A7040F24923C2F200034FF089
:101FF80000021A7047E040F25833C2F200034FF073
:1020080000021A8140F25833C2F200034FF0000276
:102018005A8140F24123C2F200034FF00A021A70BB
:1020280040F24023C2F200034FF001021A7040F25E
:102038004923C2F200034FF000021A7023E040F275
:102048005833C2F200034FF000029A8540F2583329
:10205800C2F200034FF00002DA8540F24123C2F2D7
:1020680000034FF015021A7040F24023C2F2000339
:102078004FF003021A7040F24923C2F200034FF0F6
:1020880000021A7000BF40F20433C2F200034FF09E
:1020980000021A7040F20433C2F200034FF000024B
:1020A8005A7040F20433C2F200034FF000029A70F3
:1020B80040F20433C2F200034FF00002DA7000F07D
:1020C80083BDFB792E2B16D140F24023C2F20003C8
:1020D8004FF002021A7040F24823C2F200034FF098
:1020E80000021A7040F24623C2F200034FF00002C9
:1020F8001A8000F069BDFB790D2B09D140F2FC2351
:10210800C2F200031A7842F020021A7000F05CBD97
:10211800FB790A2B7BD140F2FC23C2F200031B7827
:1021280003F02003DBB2002B00F04E8540F20433AD
:10213800C2F200031C7840F24323C2F200031B786A
:1021480018464FF00101FFF719FB03469C423AD1AC
:1021580040F20433C2F200035C7840F24323C2F237
:1021680000031B7818464FF00001FFF707FB0346F2
:102178009C4228D14FF00003FB8113E0FB8903F157
:102188000202F98940F25833C2F2000333F8111001
:1021980040F26043C2F2000323F81210FB8903F1F6
:1021A8000103FB81FB89172BE8D940F26043C2F297
:1021B80000035B8843F020039AB240F26043C2F206
:1021C80000035A800CE040F26043C2F200035B88CF
:1021D80023F020039AB240F26043C2F200035A800F
:1021E80040F24123C2F200034FF015021A7040F288
:1021F8004023C2F200034FF000021A7040F2492354
:10220800C2F200034FF000021A7000F0DDBCFB7947
:10221800242B2CD140F24023C2F200034FF00102DC
:102228001A7040F24123C2F200034FF013021A70F1
:1022380040F20433C2F200034FF000021A7040F279
:102248000433C2F200034FF000025A7040F24923EF
:10225800C2F200034FF000021A7040F2FC23C2F2EF
:1022680000031A786FF345121A7000F0ADBC40F203
:102278004923C2F200031B781A4640F20433C2F223
:102288000003F979995440F24923C2F200031B78FC
:1022980003F10103DAB240F24923C2F200031A70D3
:1022A80000F092BCFB792C2B40F0DE8340F24123F6
:1022B800C2F200031B78132B00F2B98301A252F873
:1022C80023F000BF1D2300080B2A0008372400084C
:1022D800132500080B2A00080B2A00080B2A0008FF
:1022E8000B2A0008B32700087B2800080B2A0008DF
:1022F80043290008372A00080B2A0008232600086B
:10230800EB260008372A0008372A0008372A000871
:102318000B2A000840F20433C2F200031B781A4665
:102328004FEA8202D3184FEA43039AB240F20433C9
:10233800C2F200035B78D3189BB2A3F504739AB278
:1023480040F25833C2F20003DA8240F20433C2F298
:1023580000039B781A464FEA8202D3184FEA4303D8
:102368009AB240F20433C2F20003DB78D3189BB26E
:10237800A3F504739AB240F25833C2F200031A83E9
:1023880040F20433C2F200031B791A464FEA820274
:10239800D3184FEA43039AB240F20433C2F200035F
:1023A8005B79D3189BB2A3F504739AB240F2583301
:1023B800C2F200035A8340F24623C2F200031A888D
:1023C80040F25833C2F200039A8340F2FC23C2F26F
:1023D80000031B7803F00803DBB2002B07D040F2A0
:1023E8004123C2F200034FF002021A7010E040F2DB
:1023F800FC23C2F200031B7803F01003DBB2002BAE
:1024080006D040F24123C2F200034FF00D021A70C9
:1024180040F24023C2F200034FF001021A7040F26A
:102428004923C2F200034FF000021A70FFE240F2A3
:102438000433C2F200031B781A464FEA8202D3180B
:102448004FEA43039AB240F20433C2F200035B78C6
:10245800D3189BB2A3F504739AB240F25833C2F270
:1024680000031A8040F25833C2F200031B881A4650
:102478004FEA0212D31A4FEA83039AB240F2583352
:10248800C2F200031A8040F25833C2F200031A88DD
:1024980040F20433C2F200039B7819464FEA8101E7
:1024A800CB184FEA430399B240F20433C2F2000357
:1024B800DB78CB189BB2D3189BB2A3F504739AB2FE
:1024C80040F25833C2F200031A8040F24623C2F2A7
:1024D80000031A8840F25833C2F200035A8040F2CF
:1024E8004123C2F200034FF004021A7040F2402365
:1024F800C2F200034FF001021A7040F24923C2F2FF
:1025080000034FF000021A7091E240F20433C2F265
:1025180000031B781A464FEA8202D3181A464FEA7C
:1025280082011A460B46D3184FEA83039AB240F247
:102538000433C2F200035B7819464FEA8101CB18D5
:102548004FEA43039BB2D3189AB240F20433C2F263
:1025580000039B78D3189BB2A3F5A653A3F11003ED
:102568009AB240F25833C2F200039A8040F25833CC
:10257800C2F200039B881A464FEA4202D3181A4651
:102588004FEA0212D31A4FEA83039AB240F2583341
:10259800C2F200039A8040F25833C2F200039A88CC
:1025A80040F20433C2F20003DB7819464FEA810196
:1025B800CB184FEA430399B240F20433C2F2000346
:1025C8001B79CB189BB2D3189BB2A3F504739AB2AC
:1025D80040F25833C2F200039A8040F24623C2F216
:1025E80000031A8840F25833C2F20003DA8040F23E
:1025F8004123C2F200034FF005021A7040F2402353
:10260800C2F200034FF001021A7040F24923C2F2ED
:1026180000034FF000021A7009E24FF00103FB813A
:1026280040F25833C2F200034FF000029A8140F2A0
:102638004923C2F200031B7803F1FF33DAB240F2F8
:102648004923C2F200031A7040F25833C2F2000361
:102658009A8940F24923C2F200031B78194640F2D6
:102668000433C2F200035B5CA3F130039BB2F98927
:1026780001FB03F39BB2D3189AB240F25833C2F26B
:1026880000039A81FB891A464FEA8202D3184FEA5F
:102698004303FB8140F24923C2F200031B78002B5D
:1026A800C5D140F24623C2F200031A8840F25833DB
:1026B800C2F20003DA8140F24123C2F200034FF074
:1026C8000F021A7040F24023C2F200034FF00102D9
:1026D8001A7040F24923C2F200034FF000021A7048
:1026E800A5E14FF00103FB8140F25833C2F2000329
:1026F8004FF000021A8240F24923C2F200031B780D
:1027080003F1FF33DAB240F24923C2F200031A7030
:1027180040F25833C2F200031A8A40F24923C2F247
:1027280000031B78194640F20433C2F200035B5CD5
:10273800A3F130039BB2F98901FB03F39BB2D318D1
:102748009AB240F25833C2F200031A82FB891A4641
:102758004FEA8202D3184FEA4303FB8140F2492330
:10276800C2F200031B78002BC5D140F24623C2F207
:1027780000031A8840F25833C2F200035A8240F22A
:102788004123C2F200034FF001021A7040F24023C5
:10279800C2F200034FF001021A7040F24923C2F25C
:1027A80000034FF000021A7041E14FF00103FB8172
:1027B80040F25833C2F200034FF000021A8540F28B
:1027C8004923C2F200031B7803F1FF33DAB240F267
:1027D8004923C2F200031A7040F25833C2F20003D0
:1027E8001A8D40F24923C2F200031B78194640F2C1
:1027F8000433C2F200035B5CA3F130039BB2F98996
:1028080001FB03F39BB2D3189AB240F25833C2F2D9
:1028180000031A85FB891A464FEA8202D3184FEA49
:102828004303FB8140F24923C2F200031B78002BCB
:10283800C5D140F24623C2F200031A8840F2583349
:10284800C2F200035A8540F24123C2F200034FF05E
:1028580009021A7040F24023C2F200034FF001024D
:102868001A7040F24923C2F200034FF000021A70B6
:10287800DDE04FF00103FB8140F25833C2F2000360
:102888004FF000021A8140F24923C2F200031B787C
:1028980003F1FF33DAB240F24923C2F200031A709F
:1028A80040F25833C2F200031A8940F24923C2F2B7
:1028B80000031B78194640F20433C2F200035B5C44
:1028C800A3F130039BB2F98901FB03F39BB2D31840
:1028D8009AB240F25833C2F200031A81FB891A46B1
:1028E8004FEA8202D3184FEA4303FB8140F249239F
:1028F800C2F200031B78002BC5D140F24623C2F276
:1029080000031A8840F25833C2F200035A8140F299
:102918004123C2F200034FF00A021A7040F240232A
:10292800C2F200034FF001021A7040F24923C2F2CA
:1029380000034FF000021A7079E04FF00103FB81A9
:1029480040F25833C2F200034FF000029A8540F279
:102958004923C2F200031B7803F1FF33DAB240F2D5
:102968004923C2F200031A7040F25833C2F200033E
:102978009A8D40F24923C2F200031B78194640F2AF
:102988000433C2F200035B5CA3F130039BB2F98904
:1029980001FB03F39BB2D3189AB240F25833C2F248
:1029A80000039A85FB891A464FEA8202D3184FEA38
:1029B8004303FB8140F24923C2F200031B78002B3A
:1029C800C5D140F24623C2F200031A8840F25833B8
:1029D800C2F20003DA8540F24123C2F200034FF04D
:1029E80015021A7040F24023C2F200034FF00302AE
:1029F8001A7040F24923C2F200034FF000021A7025
:102A080015E040F24023C2F200034FF000021A70B2
:102A180040F24123C2F200034FF015021A7040F24F
:102A28004923C2F200034FF000021A7000BF40F2BF
:102A38000433C2F200034FF000021A7040F204336C
:102A4800C2F200034FF000025A7040F20433C2F29F
:102A580000034FF000029A7040F20433C2F2000300
:102A68004FF00002DA70B2E0FB79242B2BD140F250
:102A78004023C2F200034FF001021A7040F24123D2
:102A8800C2F200034FF013021A7040F20433C2F28C
:102A980000034FF000021A7040F20433C2F2000340
:102AA8004FF000025A7040F24923C2F200034FF07F
:102AB80000021A7040F2FC23C2F200031A786FF386
:102AC80045121A7083E0FB792A2B1FD140F241236B
:102AD800C2F200034FF014021A7040F24023C2F20F
:102AE80000034FF001021A7040F24923C2F20003BA
:102AF8004FF000021A7040F24223C2F200031A7823
:102B080040F24323C2F200031A7060E0FB799BB2E3
:102B1800A3F13003FB8140F24623C2F200031B8875
:102B28001A464FEA8202D3184FEA43039AB240F298
:102B38004623C2F200031A8040F24623C2F2000381
:102B48001A88FB89D3189AB240F24623C2F20003CE
:102B58001A8040F24823C2F200031B7803F10103F4
:102B6800DAB240F24823C2F200031A702FE0FB7970
:102B78002A2B2BD140F24123C2F200034FF014025A
:102B88001A7040F24023C2F200034FF001021A709B
:102B980040F24923C2F200034FF000021A7040F2DB
:102BA8004223C2F200031A7840F24323C2F2000320
:102BB8001A700BE040F24023C2F200034FF000020B
:102BC8001A7004E000BF02E000BF00E000BF40F25E
:102BD800FC23C2F200031B7803F04003DBB2002B96
:102BE8000DD040F2FC23C2F200031A786FF386126C
:102BF8001A7040F24223C2F20003FA791A7040F2C6
:102C08004223C2F200031A78FB795340DAB240F249
:102C18004223C2F200031A7007F11407BD4690BDA3
:102C280080B5A8B000AF4FF001004FF0010106F0E9
:102C3800D9FA4FF002004FF0010106F0D3FA4FF035
:102C480004004FF0010106F0CDFA4FF008004FF0F4
:102C5800010106F0C7FA4FF010004FF0010106F02D
:102C6800C1FA4FF03003C7F898304FF0000387F8E7
:102C78009E304FF0020387F89F304FF0030387F828
:102C88009C304FF0000387F89D304FF00000C4F2ED
:102C9800020007F19803194605F024F84FF00000E8
:102CA800C4F202004FF000014FF0010205F0A8F94C
:102CB8004FF00000C4F202004FF001014FF0010292
:102CC80005F09EF94FF00000C4F202004FF0020137
:102CD8004FF0010205F094F94FF00000C4F2020031
:102CE8004FF003014FF0010205F08AF94FF00000A0
:102CF800C4F202004FF006014FF0020205F080F91D
:102D08004FF00000C4F202004FF007014FF002023A
:102D180005F076F94FF0CF03C7F898304FF000036D
:102D280087F89E304FF0020387F89F304FF0020378
:102D380087F89C304FF0020387F89D304FF0000071
:102D4800C4F2020007F19803194604F0CBFF4FF4D0
:102D58008060C4F202004FF000014FF0020205F05B
:102D68004FF94FF48060C4F202004FF001014FF0B8
:102D7800020205F045F94FF00303C7F898304FF009
:102D8800000387F89E304FF0020387F89F304FF01A
:102D9800020387F89C304FF0020387F89D304FF408
:102DA8008060C4F2020007F19803194604F09AFF04
:102DB8004FF48060C4F202004FF006014FF00702A2
:102DC80005F01EF94FF48060C4F202004FF00701CD
:102DD8004FF0070205F014F94FF0C003C7F8983018
:102DE8004FF0000387F89E304FF0000387F89F30BC
:102DF8004FF0020387F89C304FF0020387F89D30AC
:102E08004FF48060C4F2020007F19803194604F0F9
:102E180069FF4FF48060C4F202004FF00A014FF0DE
:102E2800040205F0EDF84FF48060C4F202004FF0A0
:102E38000B014FF0040205F0E3F84FF44063C7F8C4
:102E480098304FF0010387F89E304FF0010387F860
:102E58009F304FF0020387F89C304FF0020387F849
:102E68009D304FF48060C4F2020007F198031946C0
:102E780004F038FF4FF00F03C7F898304FF0000305
:102E880087F89E304FF0000387F89F304FF0030318
:102E980087F89C304FF0010387F89D304FF40060AD
:102EA800C4F2020007F19803194604F01BFF4FF41F
:102EB8000060C4F202004FF006014FF0030205F073
:102EC8009FF84FF40060C4F202004FF007014FF082
:102ED800030205F095F84FF40060C4F202004FF0C9
:102EE80008014FF0030205F08BF84FF40060C4F2BC
:102EF80002004FF009014FF0030205F081F84FF48A
:102F08007073C7F898304FF0000387F89E304FF081
:102F1800020387F89F304FF0020387F89C304FF088
:102F2800020387F89D304FF40060C4F2020007F1F5
:102F38009803194604F0D6FE4FF40060C4F202006C
:102F48004FF00A014FF0070205F05AF84FF40060FD
:102F5800C4F202004FF00B014FF0070205F050F8E1
:102F68004FF44063C7F898304FF0000387F89E305D
:102F78004FF0000387F89F304FF0020387F89C302A
:102F88004FF0020387F89D304FF40060C4F202004E
:102F980007F19803194604F0A5FE4FF48053C7F8CB
:102FA80098304FF0000387F89E304FF0000387F801
:102FB8009F304FF0000387F89C304FF0000387F8EC
:102FC8009D304FF40060C4F2020007F198031946DF
:102FD80004F088FE4FF01003C7F898304FF0000354
:102FE80087F89E304FF0020387F89F304FF00103B7
:102FF80087F89C304FF0000387F89D304FF400604D
:10300800C4F2020007F19803194604F06BFE4FF46E
:103018000060C4F202004FF010014FF0000204F00B
:10302800B7FF4FF02003C7F898304FF0000387F838
:103038009E304FF0000387F89F304FF0000387F869
:103048009C304FF0000387F89D304FF40060C4F2C5
:10305800020007F19803194604F044FE4FF40043B8
:10306800C7F898304FF0000387F89E304FF00103FF
:1030780087F89F304FF0010387F89C304FF000032A
:1030880087F89D304FF40060C4F2020007F19803FE
:10309800194604F027FE4FF40060C4F202004FF412
:1030A80000414FF0010204F073FF4FF44060C4F296
:1030B80002004FF005014FF0070204F0A1FF4FF4A2
:1030C8004060C4F202004FF006014FF0070204F01E
:1030D80097FF4FF06003C7F898304FF0000387F868
:1030E8009E304FF0000387F89F304FF0020387F8B7
:1030F8009C304FF0020387F89D304FF44060C4F2D3
:10310800020007F19803194604F0ECFD4FF4E06360
:10311800C7F898304FF0000387F89E304FF000034F
:1031280087F89F304FF0010387F89C304FF0000379
:1031380087F89D304FF44060C4F2020007F198030D
:10314800194604F0CFFD4FF44060C4F202004FF47A
:1031580080714FF0000204F01BFF4FF44060C4F28E
:1031680002004FF400714FF0000204F011FF4FF419
:103178004060C4F202004FF480614FF0000204F096
:1031880007FF4FF00103C7F898304FF0000387F8A6
:103198009E304FF0020387F89D304FF0000387F808
:1031A8009F304FF0010387F89C304FF44060C4F221
:1031B800020007F19803194604F094FD4FF44060AB
:1031C800C4F202004FF00C014FF0020204F018FFA5
:1031D8004FF44060C4F202004FF00D014FF00202BC
:1031E80004F00EFF4FF44060C4F202004FF00E01ED
:1031F8004FF0020204F004FF4FF44060C4F20200F2
:103208004FF00F014FF0020204F0FAFE4FF4704342
:10321800C7F898304FF0000387F89E304FF002034C
:1032280087F89F304FF0020387F89C304FF0020375
:1032380087F89D304FF44060C4F2020007F198030C
:10324800194604F04FFD4FF48050C4F202004FF0CD
:1032580005014FF0030204F0D3FE4FF02003C7F836
:1032680098304FF0000387F89E304FF0020387F83C
:103278009F304FF0020387F89C304FF0020387F825
:103288009D304FF48050C4F2020007F198031946AC
:1032980004F028FD4FF48050C4F202004FF00901F9
:1032A8004FF0010204F0ACFE4FF48050C4F202006B
:1032B8004FF00B014FF0010204F0A2FE4FF48050D2
:1032C800C4F202004FF00D014FF0010204F098FE25
:1032D8004FF48050C4F202004FF00E014FF001028B
:1032E80004F08EFE4FF4D443C7F898304FF0000333
:1032F80087F89E304FF0020387F89D304FF00203A5
:1033080087F89F304FF0020387F89C304FF48050C5
:10331800C4F2020007F19803194604F0E3FC4FF0E9
:1033280001004FF0010106F005F84FF00003A7F87F
:1033380094304FF00003A7F88E3047F6C853C7F80B
:1033480090304FF05403A7F88C304FF0000387F803
:1033580096304FF00000C4F2010007F18C031946C3
:1033680006F08CFB4FF06003A7F86C304FF00103B8
:10337800A7F86E304FF00003A7F8703040F634031A
:103388007B674FF00003A7F878304FF00003A7F8E9
:103398007A304FF00003A7F87C304FF00003A7F80D
:1033A8007E304FF00000C4F2010007F16C031946AB
:1033B80006F01AFD4FF00000C4F201004FF00801BA
:1033C80007F05EF84FF00103A7F86E304FF00000E9
:1033D800C4F2010007F16C03194606F083FD4FF0B3
:1033E8000000C4F201004FF0080107F065F84FF043
:1033F8000103A7F86E304FF00000C4F2010007F196
:103408006C03194606F002FE4FF00000C4F20100FA
:103418004FF0080107F070F84FF00103A7F86E307D
:103428004FF00000C4F2010007F16C03194606F0E2
:103438007DFE4FF00000C4F201004FF0080107F0D4
:1034480077F84FF00000C4F201004FF0010106F0D8
:1034580053FC4FF00003A7F85C304FF00003A7F8C7
:103468005E304FF00003A7F860304FF00003A7F874
:1034780062304FF00003A7F864304FF00003A7F85C
:1034880066304FF00003A7F868304FF00000C4F230
:10349800010007F15C03194607F00AFC4FF0000031
:1034A800C4F201004FF0010107F050FC4FF000009A
:1034B800C4F201004FF0010106F076FC4FF0010064
:1034C8004FF0010105F00CFF4FF00003A7F894300E
:1034D8004FF00003A7F88E3047F6C853C7F890306E
:1034E8004FF02A03A7F88C304FF0000387F8963086
:1034F8004FF0804007F18C03194606F0BFFA4FF0F1
:103508006003A7F86C304FF00103A7F86E304FF056
:103518000003A7F8703040F634037B674FF00003D0
:10352800A7F878304FF00003A7F87A304FF000037F
:10353800A7F87C304FF00003A7F87E304FF08040AA
:1035480007F16C03194606F04FFC4FF080404FF02E
:10355800080106F095FF4FF00103A7F86E304FF011
:10356800804007F16C03194606F0BCFC4FF0804020
:103578004FF0080106F0A0FF4FF00103A7F86E30E6
:103588004FF0804007F16C03194606F03FFD4FF0FD
:1035980080404FF0080106F0AFFF4FF00103A7F895
:1035A8006E304FF0804007F16C03194606F0BEFDFF
:1035B8004FF080404FF0080106F0BAFF4FF080400E
:1035C8004FF0010106F098FB4FF00003A7F85C30BC
:1035D8004FF00003A7F85E304FF00003A7F8603003
:1035E8004FF00003A7F862304FF00003A7F86430EB
:1035F8004FF00003A7F866304FF00003A7F86830D3
:103608004FF0804007F15C03194607F051FB4FF07B
:1036180080404FF0010106F0C7FB4FF002004FF069
:10362800010105F05DFE4FF00003A7F894304FF05C
:103638000003A7F88E3047F6C853C7F890304FF00C
:103648002A03A7F88C304FF0000387F896304FF420
:103658008060C4F2000007F18C03194606F00EFAE8
:103668004FF06003A7F86C304FF00103A7F86E30F5
:103678004FF00003A7F8703040F634037B674FF033
:103688000003A7F878304FF00003A7F87A304FF01E
:103698000003A7F87C304FF00003A7F87E304FF402
:1036A8008060C4F2000007F16C03194606F09CFB29
:1036B8004FF48060C4F200004FF0080106F0E0FE0D
:1036C8004FF00103A7F86E304FF48060C4F2000099
:1036D80007F16C03194606F005FC4FF48060C4F24C
:1036E80000004FF0080106F0E7FE4FF00103A7F8CD
:1036F8006E304FF48060C4F2000007F16C03194685
:1037080006F084FC4FF48060C4F200004FF008011A
:1037180006F0F2FE4FF00103A7F86E304FF4806018
:10372800C4F2000007F16C03194606F0FFFC4FF4E1
:103738008060C4F200004FF0080106F0F9FE4FF473
:103748008060C4F200004FF0010106F0D5FA4FF096
:103758000003A7F85C304FF00003A7F85E304FF085
:103768000003A7F860304FF00003A7F862304FF06D
:103778000003A7F864304FF00003A7F866304FF055
:103788000003A7F868304FF48060C4F2000007F126
:103798005C03194607F08CFA4FF48060C4F200000D
:1037A8004FF0010106F000FB4FF004004FF001015B
:1037B80005F096FD4FF00003A7F894304FF0000392
:1037C800A7F88E304FF6FF73C7F890304FF02A03F2
:1037D800A7F88C304FF0000387F896304FF400605C
:1037E800C4F2000007F18C03194606F047F94FF0C0
:1037F8000003A7F880304FF00A03A7F882304FF093
:103808000103A7F884304FF00003A7F886304FF083
:103818000103A7F888304FF40060C4F2000007F1F4
:103828008003194607F0CCF84FF00403A7F880305E
:103838004FF40060C4F2000007F18003194607F056
:10384800BFF84FF00803A7F880304FF40060C4F2C7
:10385800000007F18003194607F0B2F84FF00C0397
:10386800A7F880304FF40060C4F2000007F180032D
:10387800194607F0A5F84FF40060C4F200004FF0B5
:103888001E014FF0010207F0C9FA4FF40060C4F2BC
:1038980000004FF0010106F087FA4FF002004FF0E8
:1038A800010105F047FD4FF00003A7F894304FF0F1
:1038B8000003A7F88E304FF6FF73C7F890304FF02B
:1038C8005403A7F88C304FF0000387F896304FF474
:1038D8008060C4F2010007F18C03194606F0CEF8A7
:1038E8004FF00003A7F880304FF00A03A7F88230A2
:1038F8004FF00103A7F884304FF00003A7F8863093
:103908004FF00103A7F888304FF48060C4F201003B
:1039180007F18003194607F053F84FF00403A7F89E
:1039280080304FF48060C4F2010007F1800319462B
:1039380007F046F84FF00803A7F880304FF480608E
:10394800C4F2010007F18003194607F039F84FF077
:103958000C03A7F880304FF48060C4F2010007F12F
:103968008003194607F02CF84FF48060C4F2010078
:103978004FF01E014FF0010207F050FA4FF480603B
:10398800C4F201004FF0010106F00EFA4FF4807006
:103998004FF0010105F0A4FC4FF00003A7F89430A4
:1039A8004FF00003A7F88E304FF47A73C7F89030C1
:1039B8004FF05403A7F88C304FF0000387F8963087
:1039C8004FF40050C4F2000007F18C03194606F0CA
:1039D80055F84FF40050C4F200004FF001014FF0C9
:1039E800010207F01BFA4FF40050C4F200004FF038
:1039F800010106F0D9F94FF010004FF0010105F070
:103A080099FC4FF4C0204FF0010105F069FC4FF418
:103A180016437B604FF000033B824FF00C03FB81A1
:103A28004FF00003BB814FF000037B814FF0000390
:103A38003B814FF48840C4F2000007F104031946A3
:103A480007F03AFE4FF48840C4F2000040F22551D6
:103A58004FF0010208F096F94FF48840C4F20000D4
:103A68004FF0010107F064FF4FF400104FF001011F
:103A780005F0B8FB46F2A000C4F2020003F06AFCAD
:103A88004FF496437B604FF000033B824FF00C03EA
:103A9800FB814FF00003BB814FF000037B814FF0A7
:103AA80000033B814FF48050C4F2010007F1040386
:103AB800194607F001FE4FF48050C4F2010040F2AD
:103AC80025514FF0010208F05DF94FF48050C4F21F
:103AD80001004FF0010107F02BFF4FF416537B60F4
:103AE8004FF000033B824FF00C03FB814FF00003C3
:103AF800BB814FF000037B814FF000033B814FF403
:103B08009040C4F2000007F10403194607F0D4FD01
:103B18004FF49040C4F2000040F225514FF00102EA
:103B280008F030F94FF49040C4F200004FF0010162
:103B380007F0FEFE46F27000C4F2020003F00AFC31
:103B48004FF480004FF0010105F0CAFB4FF4D45345
:103B5800C0F20603FB644FF00003A7F850304BF6A1
:103B6800FF73A7F852304FF00003A7F854304FF412
:103B78008063A7F856304FF48043A7F858304FF4C5
:103B8800B040C4F2000007F14C03194604F0D0FA23
:103B980046F2B800C4F2020003F0DCFB46F258001B
:103BA800C4F2020003F0D6FB4FF4B040C4F20000A8
:103BB8004FF0010104F0B4FB4FF480704FF00101A5
:103BC80005F0B8FB4FF400704FF0010105F0B2FBAF
:103BD8004FF480604FF0010105F0ACFB4FF000039B
:103BE8007B624FF000033B634FF00003FB624FF42E
:103BF8004033BB6207F12403184602F071FE4FF010
:103C080000037B634FF0000387F838304FF0000360
:103C180087F839304FF00003FB634FF000033B6433
:103C28004FF000037B644FF0020387F848304FF4ED
:103C38000050C4F2010007F13403194602F0CEFD2A
:103C48004FF0010387F848304FF40450C4F20100E4
:103C580007F13403194602F0C1FD4FF40850C4F2CD
:103C6800010007F13403194602F0B8FD4FF4005083
:103C7800C4F201004FF00A014FF001024FF00003B7
:103C880002F02CFF4FF40050C4F201004FF00B017A
:103C98004FF002024FF0000302F020FF4FF40450EF
:103CA800C4F201004FF00C014FF001024FF0000385
:103CB80002F014FF4FF40850C4F201004FF00D0158
:103CC8004FF001024FF0000302F008FF4FF40050DC
:103CD800C4F2010040F205214FF0010203F092FA0C
:103CE8004FF40450C4F2010040F205214FF00102E4
:103CF80003F088FA4FF40850C4F2010040F205219D
:103D08004FF0010203F07EFA4FF40050C4F20100B4
:103D18004FF0010102F02CFE4FF40450C4F20100F0
:103D28004FF0010102F024FE4FF40850C4F20100E4
:103D38004FF0010102F01CFE4FF00100FDF720F9E1
:103D480007F1A007BD4680BD80B500AFFEF768FF4C
:103D58004FF44060C4F202004FF400714FF00102CA
:103D680004F016F900E000BF40F24C23C2F2000351
:103D78001B680F2B11D100F06BFA40F29833C2F296
:103D88000003DB89BF481946FDF784FA40F24C234B
:103D9800C2F200034FF000021A6040F26043C2F220
:103DA80000031B8803F00103DBB2002B0ED000F0E8
:103DB800F3FE40F26043C2F200031B8823F00103C4
:103DC8009AB240F26043C2F200031A8040F26043A4
:103DD800C2F200031B8803F00203002B0ED000F090
:103DE80015FF40F26043C2F200031B8823F0020370
:103DF8009AB240F26043C2F200031A8040F2604374
:103E0800C2F200031B8803F00403002B0ED000F05D
:103E18002DFF40F26043C2F200031B8823F0040325
:103E28009AB240F26043C2F200031A8040F2604343
:103E3800C2F200031B8803F08003002B0ED0FDF7AD
:103E4800B9FB40F26043C2F200031B8823F08003F1
:103E58009AB240F26043C2F200031A8040F2604313
:103E6800C2F200031B8803F40063002B0ED0FDF799
:103E7800CBFA40F26043C2F200031B8823F40063CC
:103E88009AB240F26043C2F200031A8040F26043E3
:103E9800C2F200031B8803F00803002B19D040F27C
:103EA8006043C2F20003B3F86C304FF00000C4F274
:103EB8000100194606F05EFA40F26043C2F20003C0
:103EC8001B8823F008039AB240F26043C2F2000351
:103ED8001A8040F26043C2F200031B8803F010030B
:103EE800002B18D04FF0D0004FF03B0140F29C520D
:103EF800C2F200024FF0160301F00CFE40F26043DC
:103F0800C2F200031B8823F010039AB240F2604308
:103F1800C2F200031A8040F26043C2F200031B8819
:103F280003F02003002B0CD040F26043C2F20003E0
:103F38001B8823F020039AB240F26043C2F20003C8
:103F48001A8040F26043C2F200031B8803F040036A
:103F5800002B2ED04FF0010001F0BCFA4FF0010009
:103F680001F034FB4FF0010001F01EFC4FF001009E
:103F780001F05EFC4FF0000001F028FB01F074FB3B
:103F88004FF0010001F0C2FB40F23063C2F20003BF
:103F98001A7842F010021A7040F26043C2F200032D
:103FA8001B8823F040039AB240F26043C2F2000338
:103FB8001A8040F26043C2F200031B8803F4807346
:103FC800002B21D040F26043C2F2000340F63402D5
:103FD800A3F86C2040F26043C2F20003B3F86C30DF
:103FE8004FF00000C4F20100194606F0C3F940F290
:103FF8006043C2F200031B8823F480739AB240F234
:104008006043C2F200031A8040F26043C2F2000328
:104018001B8803F40073002B14D040F23063C2F203
:1040280000031A7842F080021A7040F26043C2F22C
:1040380000031B8823F400739AB240F26043C2F273
:1040480000031A8040F26043C2F200031B8803F4A5
:104058008063002B18D040F23063C2F200031A7854
:104068006FF3C7121A7040F26043C2F200031B8854
:1040780023F480639AB240F26043C2F200031A80CC
:1040880002E000BFAA03002040F26043C2F200032E
:104098001B8803F48053002B22D040F23063C2F215
:1040A80000035B78C3F3C003DBB26FEA0303DBB240
:1040B80003F00103D9B240F23063C2F200035A7828
:1040C80061F3C3025A7040F26043C2F200031B88D6
:1040D80023F480539AB240F26043C2F200031A807C
:1040E80040F26043C2F200031B8803F40053002B24
:1040F8000ED0FDF717F840F26043C2F200031B88A8
:1041080023F400539AB240F26043C2F200031A80CB
:1041180040F25C23C2F200031B780E2B1DD100F085
:10412800DDFD40F25C23C2F200034FF000021A707A
:1041380040F23063C2F200031A786FF341021A703A
:1041480040F26043C2F200035B8843F010039AB266
:1041580040F26043C2F200035A8040F23063C2F278
:1041680000031B7803F00103DBB2002B3FF4FBAD27
:1041780001F02AF840F26043C2F200035B8843F082
:1041880001039AB240F26043C2F200035A8040F23F
:104198006043C2F200035B8843F002039AB240F224
:1041A8006043C2F200035A8040F26043C2F2000347
:1041B8005B8843F004039AB240F26043C2F2000302
:1041C8005A8040F26043C2F200035B8843F0080360
:1041D8009AB240F26043C2F200035A80C3E500BFBE
:1041E80080B400AF40F25423C2F200031B6803F10D
:1041F800010240F25423C2F200031A6040F2542331
:10420800C2F200031A6840F24C439A4206DD40F2BB
:104218005423C2F2000340F24C421A6040F24C238D
:10422800C2F200031B68002B0ED040F25423C2F2E6
:1042380000031B68B3F57A7F06DD40F24C23C2F217
:1042480000034FF000021A60BD4680BC704700BFF3
:1042580080B584B000AF4FF00003FB604FF000035F
:10426800BB604FF000037B604FF000033B6040F2FF
:104278009833C2F200035B78172B40F0AF804FF001
:104288000003BB6040F29833C2F20003DB88FB6096
:104298001FE0FB68002B18DBFB684F2B15DC40F296
:1042A8009832C2F20002BB6803F108034FEA4303E5
:1042B800D318598840F26043C2F20003FA6823F821
:1042C8001210BB6803F10103BB60FB6803F1010333
:1042D800FB6040F29833C2F20003DB881A4640F2D2
:1042E8009833C2F20003DB89D218FB689A42D0DC0B
:1042F8004FF000037B6040F29833C2F200034FF0A6
:1043080033029A7440F29833C2F200034FF0170256
:10431800DA7440F29833C2F200039B88DBB24FEAAA
:104328004303DAB240F29833C2F200031A754FF031
:1043380003037B6040F29833C2F200035B88FB60A2
:1043480031E0FB68002B2ADBFB684F2B27DC40F2AF
:104358006043C2F20003FA6833F812303B603B68EE
:104368004FEA1323DAB240F29833C2F200037968B5
:104378005B1803F110039A707B6803F101037B60FB
:104388003B68DAB240F29833C2F2000379685B18EE
:1043980003F110039A707B6803F101037B60FB68EB
:1043A80003F10103FB6040F29833C2F200035B881B
:1043B8001A4640F29833C2F200039B88D218FB6871
:1043C8009A42BEDC7B689AB240F29833C2F200038C
:1043D800DA817B68184600F0BDFA00BF07F11007C4
:1043E800BD4680BD80B582B000AF7860786800F0C7
:1043F8007DFA40F24C23C2F200031B68002B30D137
:1044080040F25423C2F200031B68312B02DC4FF048
:1044180034037B607B68332B40F05C8240F251238D
:10442800C2F200034FF0FF021A7040F25023C2F2AA
:1044380000034FF0FF021A70786800F057FA7B68A3
:10444800D9B240F29833C2F200031A7861F3070236
:104458001A7040F24C23C2F200034FF001021A60B6
:1044680038E240F25423C2F200031B680A2B09DD2C
:104478004FF034037B6040F24C23C2F200034FF04C
:1044880000021A6040F24C23C2F200031B6803F1D9
:10449800FF330E2B00F2118201A252F823F000BF65
:1044A800E5440008AB450008CF450008F34500087F
:1044B800174600085F4600088346000809470008B9
:1044C8002D4700085147000895470008C3470008D2
:1044D8004B4800086F480008D34800087B68D9B2E9
:1044E80040F29833C2F200035A7861F307025A7017
:1044F80040F29833C2F200035B78A3F10303142B54
:1045080000F2E58101A252F823F000BF89450008B6
:10451800D7480008D748000879450008D748000858
:10452800D7480008D7480008D7480008D7480008E7
:10453800D7480008D7480008D7480008D7480008D7
:1045480099450008D7480008D7480008D748000808
:10455800D7480008D7480008D74800086945000828
:1045680040F24C23C2F200034FF002021A6017E037
:1045780040F24C23C2F200034FF006021A600FE02B
:1045880040F24C23C2F200034FF002021A6007E027
:1045980040F24C23C2F200034FF006021A6000BF3B
:1045A80095E17B68D9B240F29833C2F20003DA7819
:1045B80061F30702DA7040F24C23C2F200034FF0B5
:1045C80003021A6086E17B68D9B240F29833C2F2DE
:1045D80000039A7861F307029A7040F24C23C2F202
:1045E80000034FF004021A6074E17B68D9B240F20C
:1045F8009833C2F200035A7961F307025A7140F204
:104608004C23C2F200034FF005021A6062E17B6896
:10461800D9B240F29833C2F200031A7961F3070263
:104628001A7140F29833C2F200035B78032B09D069
:10463800172B0FD140F24C23C2F200034FF00602B1
:104648001A6007E040F24C23C2F200034FF00D025B
:104658001A6000BF3EE17B68D9B240F29833C2F2DB
:104668000003DA7961F30702DA7140F24C23C2F2EF
:1046780000034FF007021A602CE17B68D9B240F2C0
:104688009833C2F200039A7961F307029A7140F2F3
:104698009833C2F200035B78102B28D0172B02D076
:1046A800062B08D02BE040F24C23C2F200034FF057
:1046B80008021A6023E040F29833C2F200031A8914
:1046C8004FF0010161F30F021A8140F29833C2F2F0
:1046D80000039A7A4FF0020161F307029A7240F2DE
:1046E8004C23C2F200034FF00B021A6007E040F2BD
:1046F8004C23C2F200034FF008021A6000BFE9E041
:104708007B68D9B240F29833C2F200035A7A61F357
:1047180007025A7240F24C23C2F200034FF009021A
:104728001A60D7E07B68D9B240F29833C2F200032E
:104738001A7A61F307021A7240F24C23C2F200039C
:104748004FF00A021A60C5E07B68D9B240F298338C
:10475800C2F200039A7A61F307029A7240F24C237C
:10476800C2F200034FF00B021A6040F29833C2F213
:1047780000039A896FF30F029A8140F29833C2F2CC
:104788000003DA896FF30F02DA81A3E040F298336D
:10479800C2F200039B8903F101017B68DAB240F29F
:1047A8009833C2F200035B189A7440F24C23C2F2A9
:1047B80000034FF00C021A608CE040F29833C2F20A
:1047C80000039B8919467B68DAB240F29833C2F23B
:1047D80000035B189A7440F29833C2F200039B8975
:1047E80003F102039AB240F29833C2F200039A81AD
:1047F80040F29833C2F20003DB8903F101039AB255
:1048080040F29833C2F20003DA8140F29833C2F2E0
:1048180000039A8940F29833C2F200039B7A9A42C5
:1048280007D140F24C23C2F200034FF00D021A6088
:1048380050E040F24C23C2F200034FF00B021A6022
:1048480048E07B68D9B240F29833C2F200035A7C40
:1048580061F307025A7440F24C23C2F200034FF08E
:104868000E021A6036E07B68D9B240F29833C2F281
:1048780000031A7C61F307021A7440F24C23C2F257
:1048880000034FF00F021A6040F25123C2F20003F6
:104898001B78002B1DD140F25023C2F200031B7875
:1048A800002B16D140F29833C2F20003DA7A4FF0A7
:1048B800010161F30702DA720BE040F24C23C2F205
:1048C80000034FF000021A6004E000BF02E000BFDE
:1048D80000E000BF40F25423C2F200034FF0000290
:1048E8001A6007F10807BD4680BD00BF80B485B0D7
:1048F80000AF78604FF00003FB6040F25123C2F232
:1049080000031B781A467B685340FB6040F20003A3
:10491800C2F20003FA689B181A7840F25023C2F2D8
:1049280000031B785340DAB240F25123C2F200036D
:104938001A7040F20013C2F20003FA689B181A7842
:1049480040F25023C2F200031A7007F11407BD4663
:1049580080BC704780B485B000AF78604FF000032A
:10496800FB604FF00003BB6040F25123C2F200032A
:104978004FF0FF021A7040F25023C2F200034FF0CA
:10498800FF021A704FF00003BB604FF00003FB609A
:1049980033E040F29833C2F20003FA689B1803F13F
:1049A80010039A7840F25123C2F200031B78534057
:1049B800DBB2BB6040F20003C2F20003BA689B1886
:1049C8001A7840F25023C2F200031B785340DAB23F
:1049D80040F25123C2F200031A7040F20013C2F2EF
:1049E8000003BA689B181A7840F25023C2F20003F9
:1049F8001A70FB6803F10103FB60FA687B689A424E
:104A0800C7D340F29833C2F20003DB89194640F25B
:104A18005123C2F200031A7840F29833C2F200031D
:104A28005B189A7440F29833C2F20003DB8903F1F1
:104A380001039AB240F29833C2F20003DA8140F2DD
:104A48009833C2F20003DB89194640F25023C2F2C0
:104A580000031A7840F29833C2F200035B189A7484
:104A680040F29833C2F20003DB8903F101039AB2E2
:104A780040F29833C2F20003DA8107F11407BD4609
:104A880080BC704780B400AF40F26023C2F20003DC
:104A98001B6803F1010240F26023C2F200031A60AE
:104AA80040F26023C2F200031A6840F24C439A4273
:104AB80006DD40F26023C2F2000340F24C421A6065
:104AC80040F23063C2F200031B7803F00403DBB248
:104AD800002B2BD040F26023C2F200031B68B3F511
:104AE8007A7F23DD40F25C23C2F200034FF000021C
:104AF8001A7040F23063C2F200031A786FF3820230
:104B08001A7040F23063C2F200031A786FF3410260
:104B18001A7040F26043C2F200035B8823F010036E
:104B28009AB240F26043C2F200035A8040F25C231A
:104B3800C2F200031B78002B2BD040F26023C2F294
:104B480000031B68B3F57A7F23DD40F25C23C2F2D1
:104B580000034FF000021A7040F23063C2F2000303
:104B68001A786FF382021A7040F23063C2F20003BF
:104B78001A786FF341021A7040F26043C2F20003E0
:104B88005B8823F010039AB240F26043C2F200033C
:104B98005A80BD4680BC704780B500AF40F2306394
:104BA800C2F200031A7842F002021A7040F230632F
:104BB800C2F200031A7842F004021A7040F260232D
:104BC800C2F200034FF064021A604FF48050C4F23E
:104BD80001004FF0570106F02BFF00BF4FF4805043
:104BE800C4F201004FF0400107F01EF90346002B04
:104BF800F4D04FF47A70FCF72DFB4FF48050C4F2D8
:104C080001004FF06D0106F013FF80BD80B500AFC5
:104C18004FF48050C4F201004FF0580106F008FF2D
:104C28004FF47A70FCF716FB00BF4FF48050C4F2C3
:104C380001004FF0400107F0F7F80346002BF4D0CD
:104C48004FF48050C4F201004FF02C0106F0F0FE42
:104C580000BF4FF48050C4F201004FF0400107F04C
:104C6800E3F80346002BF4D080BD00BF80B500AF49
:104C780040F23063C2F200031A7842F002021A705E
:104C88004FF48050C4F201004FF0590106F0D0FEF5
:104C98004FF47A70FCF7DEFA00BF4FF48050C4F28C
:104CA80001004FF0400107F0BFF80346002BF4D095
:104CB8004FF48050C4F201004FF0720106F0B8FEC4
:104CC80000BF4FF48050C4F201004FF0400107F0DC
:104CD800ABF80346002BF4D080BD00BF80B400AF12
:104CE80040F20053C2F200035A8840F26043C2F215
:104CF80000039A8640F20053C2F200039A8840F2F9
:104D08006043C2F20003DA8640F20053C2F20003A5
:104D1800DA8840F26043C2F200031A8740F2005377
:104D2800C2F200031A8940F26043C2F200035A87B4
:104D380040F20053C2F200035A8940F26043C2F2C3
:104D480000039A8740F20053C2F200039A8940F2A6
:104D58006043C2F20003DA8740F25C23C2F2000328
:104D68004FF000021A70BD4680BC704780B582B013
:104D780000AF0346FB71FB79184600F075F940F265
:104D88005C23C2F200031B78002B33D140F260236E
:104D9800C2F200031B68312B02DC4FF00003FB71E9
:104DA800FB7903F0F003502B40F0538140F210538D
:104DB800C2F200034FF0FF021A70FB79184600F0A8
:104DC80053F940F20053C2F200031A78F97961F3FB
:104DD80007021A7040F25C23C2F200034FF002028D
:104DE8001A7040F23063C2F200031A786FF382023D
:104DF8001A702EE140F26023C2F200031B680A2BEE
:104E080009DD4FF00003FB7140F25C23C2F200039E
:104E18004FF000021A7040F25C23C2F200031B78C4
:104E280003F1FF330D2B00F20B8101A252F823F09E
:104E3800934E0008714E0008D74E0008B54E000882
:104E48001B4F0008F94E00085F4F00083D4F00084F
:104E5800A34F0008814F0008E74F0008C54F00081E
:104E6800095000085950000840F20053C2F20003EC
:104E78009A78F97961F307029A7040F25C23C2F2DA
:104E880000034FF001021A70E3E040F20053C2F24F
:104E98000003DA78F97961F30702DA7040F25C23EB
:104EA800C2F200034FF004021A70D2E040F200533D
:104EB800C2F200031A79F97961F307021A7140F214
:104EC8005C23C2F200034FF003021A70C1E040F203
:104ED8000053C2F200035A79F97961F307025A7153
:104EE80040F25C23C2F200034FF006021A70B0E0F1
:104EF80040F20053C2F200039A79F97961F307028C
:104F08009A7140F25C23C2F200034FF005021A7056
:104F18009FE040F20053C2F20003DA79F97961F3B5
:104F28000702DA7140F25C23C2F200034FF0080274
:104F38001A708EE040F20053C2F200031A7AF9792F
:104F480061F307021A7240F25C23C2F200034FF0C9
:104F580007021A707DE040F20053C2F200035A7A49
:104F6800F97961F307025A7240F25C23C2F2000336
:104F78004FF00A021A706CE040F20053C2F20003CC
:104F88009A7AF97961F307029A7240F25C23C2F2C5
:104F980000034FF009021A705BE040F20053C2F2BE
:104FA8000003DA7AF97961F30702DA7240F25C23D6
:104FB800C2F200034FF00C021A704AE040F20053AC
:104FC800C2F200031A7BF97961F307021A7340F2FF
:104FD8005C23C2F200034FF00B021A7039E040F272
:104FE8000053C2F200035A7BF97961F307025A733E
:104FF80040F25C23C2F200034FF00D021A7028E061
:1050080040F20053C2F200035A78F97961F30702BB
:105018005A7040F21053C2F200031B78002B07D1DC
:1050280040F25C23C2F200034FF00E021A7010E047
:1050380040F25C23C2F200034FF000021A7008E04D
:1050480040F25C23C2F200034FF000021A7000E045
:1050580000BF40F26023C2F200034FF000021A6062
:1050680007F10807BD4680BD80B483B000AF034692
:10507800FB7140F21053C2F200031A78FB795340D7
:10508800DBB21A464CF25003C0F6000353F8223044
:10509800DAB240F21053C2F200031A7007F10C079B
:1050A800BD4680BC704700BF80B500AF40F230639A
:1050B800C2F200031A786FF304121A704FF0D0008E
:1050C8004FF06B0140F29C52C2F200024FF0050310
:1050D80000F044FE44F62060FCF7BCF840F29C5314
:1050E800C2F200031B78DBB25BB2002B23DB40F279
:1050F8001C53C2F200034FF06B021A7040F21C53AB
:10510800C2F200034FF080025A704FF0D00040F214
:105118001C51C2F200014FF0020200F0DBFB44F622
:105128002060FCF797F840F23063C2F200031A7867
:1051380042F040021A704FF0010000F0CBF94FF036
:10514800010000F043FA40F23063C2F200031B781A
:1051580003F04003DBB2002B1BD040F21C53C2F219
:1051680000034FF026021A7040F21C53C2F20003EB
:105178004FF004025A704FF0C00040F21C51C2F2C6
:1051880000014FF0020200F0A5FB44F62060FCF796
:1051980061F84FF0010000F007FB4FF0010000F04C
:1051A80047FB4FF0000000F011FA00F05DFA4FF0F5
:1051B800010000F0ABFA40F23063C2F200031A7843
:1051C80042F010021A7080BD80B483B000AF4FF077
:1051D8000003FB8040F29C53C2F200031B784FEAA5
:1051E80003239AB240F26043C2F20003A3F84620B8
:1051F80040F26043C2F20003B3F8462040F29C53E9
:10520800C2F200035B7813439AB240F26043C2F2E1
:105218000003A3F8462040F29C53C2F200039B7897
:105228004FEA03239AB240F26043C2F20003A3F8A4
:10523800482040F26043C2F20003B3F8482040F22D
:105248009C53C2F20003DB7813439AB240F26043E6
:10525800C2F20003A3F8482040F29C53C2F20003B4
:105268001B794FEA03239AB240F26043C2F200036B
:10527800A3F84A2040F26043C2F20003B3F84A2080
:1052880040F29C53C2F200035B7913439AB240F296
:105298006043C2F20003A3F84A2040F29C53C2F2D2
:1052A80000031B7A4FEA03239AB240F26043C2F22A
:1052B8000003A3F8522040F26043C2F20003B3F89F
:1052C800522040F29C53C2F200035B7A13439AB215
:1052D80040F26043C2F20003A3F8522040F29C530C
:1052E800C2F200039B7A4FEA03239AB240F260436A
:1052F800C2F20003A3F8542040F26043C2F2000354
:10530800B3F8542040F29C53C2F20003DB7A1343F3
:105318009AB240F26043C2F20003A3F8542040F26C
:105328009C53C2F200031B7B4FEA03239AB240F25C
:105338006043C2F20003A3F8562040F26043C2F271
:105348000003B3F8562040F29C53C2F200035B7B83
:1053580013439AB240F26043C2F20003A3F8562006
:1053680040F29C53C2F200039B7B4FEA03239AB29C
:1053780040F26043C2F20003A3F84C2040F26043BD
:10538800C2F20003B3F84C2040F29C53C2F200036F
:10539800DB7B13439AB240F26043C2F20003A3F8E6
:1053A8004C2040F29C53C2F200031B7C4FEA0323BB
:1053B8009AB240F26043C2F20003A3F84E2040F2D2
:1053C8006043C2F20003B3F84E2040F29C53C2F28D
:1053D80000035B7C13439AB240F26043C2F20003BD
:1053E800A3F84E2040F29C53C2F200039B7C4FEA84
:1053F80003239AB240F26043C2F20003A3F850209C
:1054080040F26043C2F20003B3F8502040F29C53CC
:10541800C2F20003DB7C13439AB240F26043C2F24B
:105428000003A3F8502040F29C53C2F200031B7DF6
:105438004FEA03239AB240F26043C2F20003A3F892
:10544800582040F26043C2F20003B3F8582040F2FB
:105458009C53C2F200035B7D13439AB240F260434F
:10546800C2F20003A3F8582040F26043C2F20003DE
:10547800B3F858301A464FEA8202D3184FEA43036A
:105488009AB240F26043C2F20003A3F8582040F2F7
:105498009C53C2F200039B7DFB80FB884FEA1313E9
:1054A800FB80FB8803F00F03FB8040F26043C2F2ED
:1054B8000003B3F85820FB88D3189AB240F260432F
:1054C800C2F20003A3F8582007F10C07BD4680BCC0
:1054D800704700BF80B584B000AF0346FB714FF042
:1054E8000003FB734FF00003BB734FF0D0004FF085
:1054F8006B0140F29C52C2F200024FF0050300F02B
:105508002DFC40F29C53C2F200031B78BB7340F29F
:105518001C53C2F200034FF06B021A70FB79012B87
:105528000DD1BB7B23F04003BB73BB7B43F001036E
:10553800DAB240F21C53C2F200035A7008E0BB7B97
:1055480043F04003DAB240F21C53C2F200035A702F
:105558004FF0D00040F21C51C2F200014FF002029D
:1055680000F0B8F94FF4FA60FBF774FE40F21C53F0
:10557800C2F200034FF01A021A7040F21C53C2F232
:1055880000034FF002025A7040F21C53C2F20003AB
:105598004FF010029A7040F21C53C2F200034FF011
:1055A8001002DA704FF0D00040F21C51C2F2000134
:1055B8004FF0040200F08EF944F62060FBF74AFE33
:1055C800FB7B184607F11007BD4680BD80B584B047
:1055D80000AF0346FB714FF00003FB734FF000036D
:1055E800BB734FF0D0004FF0370140F29C52C2F22B
:1055F80000024FF0050300F0B1FB40F29C53C2F2E9
:1056080000031B78BB7340F21C53C2F200034FF037
:1056180037021A70FB79012B09D1BB7B43F00203D7
:10562800DAB240F21C53C2F200035A7008E0BB7BA6
:1056380023F00203DAB240F21C53C2F200035A709C
:105648004FF0D00040F21C51C2F200014FF00202AC
:1056580000F040F944F62060FBF7FCFDFB7B1846A0
:1056680007F11007BD4680BD80B582B000AF4FF08E
:105678000003FB7140F21C53C2F200034FF02402F6
:105688001A7040F21C53C2F200034FF05D025A70C8
:1056980040F21C53C2F200034FF09E029A7040F28F
:1056A8001C53C2F200034FF00302DA7040F21C539D
:1056B800C2F200034FF086021A7140F21C53C2F284
:1056C80000034FF0E0025A7140F21C53C2F200038B
:1056D8004FF001029A7140F21C53C2F200034FF0DE
:1056E8008302DA714FF0D00040F21C51C2F200017F
:1056F8004FF0080200F0EEF844F62060FBF7AAFD30
:10570800FB79184607F10807BD4680BD80B584B00F
:1057180000AF0346FB714FF00003FB734FF000032B
:10572800BB734FF0D0004FF06A0140F29C52C2F2B6
:1057380000024FF0050300F011FB40F29C53C2F247
:1057480000031B78BB7340F21C53C2F200034FF0F6
:105758006A021A70FB79012B09D1BB7B43F0200345
:10576800DAB240F21C53C2F200035A7008E0BB7B65
:1057780023F02003DAB240F21C53C2F200035A703D
:105788004FF0D00040F21C51C2F200014FF002026B
:1057980000F0A0F844F62060FBF75CFDFB7B1846A0
:1057A80007F11007BD4680BD80B584B000AF034641
:1057B800FB714FF00003FB7340F21C53C2F200036D
:1057C8004FF000021A7040F21C53C2F200034FF06F
:1057D80078025A7040F21C53C2F200034FF02002C4
:1057E8009A70FB79012B07D140F21C53C2F20003D7
:1057F8004FF00002DA7006E040F21C53C2F20003D8
:105808004FF00202DA704FF03C0040F21C51C2F235
:1058180000014FF0040200F05DF844F62060FBF749
:1058280019FDFB7B184607F11007BD4680BD00BF78
:1058380080B584B000AF0346FB714FF00003FB73E3
:1058480040F21C53C2F200034FF026021A70FB7993
:10585800012B07D140F21C53C2F200034FF0810222
:105868005A7006E040F21C53C2F200034FF0800267
:105878005A7040F21C53C2F200034FF000029A70B3
:1058880040F21C53C2F200034FF03302DA7040F2C8
:105898001C53C2F200034FF080021A7140F21C53ED
:1058A800C2F200034FF000025A714FF0C00040F2FC
:1058B8001C51C2F200014FF0060200F00BF844F64A
:1058C8002060FBF7C7FCFB7B184607F11007BD46B5
:1058D80080BD00BF80B592B000AF39601346024664
:1058E800FA71BB714FF4B040C4F200004FF4E061AC
:1058F8004FF0000202F0C0FF46F2B800C4F2020006
:105908004FF0000101F0E6FE00BF46F2B800C4F215
:10591800020001F0B7FF0346002BF6D146F2B800AB
:10592800C4F2020001F016FD4FF06063FB6045F61B
:105938001003C4F200033B613B687B614FF04003F6
:10594800BB61BB79FB614FF000033B624FF480639E
:105958007B624FF00003BB624FF00003FB624FF025
:1059680000033B634FF440337B634FF00403BB6396
:105978004FF00303FB634FF000033B644FF0000359
:105988007B6446F2B800C4F2020007F10C03194622
:1059980001F002FE46F2B800C4F202004FF03D5199
:1059A80001F0E4FF4FF4B040C4F200004FF40031BE
:1059B80002F0E4FF0346002B0BD000BF4FF4B040C9
:1059C800C4F200004FF4003102F0D8FF0346002B68
:1059D800F4D04FF4B040C4F200004FF0010102F0DF
:1059E800BFFC00BF4FF4B040C4F200004FF001010B
:1059F800C0F2030102F064FF0346002BF2D0FB79EA
:105A08004FF4B040C4F2000019464FF0000202F013
:105A1800E7FC00BF4FF4B040C4F200004FF0820131
:105A2800C0F2070102F04CFF0346002BF2D046F209
:105A3800B800C4F202004FF0205101F097FF4FF474
:105A4800B040C4F200004FF0010102F0BDFE46F282
:105A5800B800C4F202004FF0010101F03BFE0AE079
:105A680046F2B800C4F202004FF0205101F03AFFAC
:105A78000346002B09D146F2B800C4F2020001F037
:105A880001FF0346012BEBD100E000BF00BF46F247
:105A9800B800C4F202004FF0205101F023FF034682
:105AA800002BF4D000BF4FF4B040C4F200004FF018
:105AB8008001C1F2000102F061FF0346002BF2D021
:105AC8004FF4B040C4F200004FF0010102F068FC4E
